{
  "contractName": "Lottery",
  "abi": [
    {
      "inputs": [],
      "stateMutability": "nonpayable",
      "type": "constructor"
    },
    {
      "inputs": [],
      "name": "manager",
      "outputs": [
        {
          "internalType": "address",
          "name": "",
          "type": "address"
        }
      ],
      "stateMutability": "view",
      "type": "function",
      "constant": true
    },
    {
      "inputs": [
        {
          "internalType": "uint256",
          "name": "",
          "type": "uint256"
        }
      ],
      "name": "participants",
      "outputs": [
        {
          "internalType": "address payable",
          "name": "",
          "type": "address"
        }
      ],
      "stateMutability": "view",
      "type": "function",
      "constant": true
    },
    {
      "inputs": [],
      "name": "winner",
      "outputs": [
        {
          "internalType": "address payable",
          "name": "",
          "type": "address"
        }
      ],
      "stateMutability": "view",
      "type": "function",
      "constant": true
    },
    {
      "stateMutability": "payable",
      "type": "receive",
      "payable": true
    },
    {
      "inputs": [],
      "name": "getBalance",
      "outputs": [
        {
          "internalType": "uint256",
          "name": "",
          "type": "uint256"
        }
      ],
      "stateMutability": "view",
      "type": "function",
      "constant": true
    },
    {
      "inputs": [],
      "name": "random",
      "outputs": [
        {
          "internalType": "uint256",
          "name": "",
          "type": "uint256"
        }
      ],
      "stateMutability": "view",
      "type": "function",
      "constant": true
    },
    {
      "inputs": [],
      "name": "pickWinner",
      "outputs": [],
      "stateMutability": "nonpayable",
      "type": "function"
    },
    {
      "inputs": [],
      "name": "allPlayers",
      "outputs": [
        {
          "internalType": "address payable[]",
          "name": "",
          "type": "address[]"
        }
      ],
      "stateMutability": "view",
      "type": "function",
      "constant": true
    }
  ],
  "bytecode": "0x608060405234801561001057600080fd5b50336000806101000a81548173ffffffffffffffffffffffffffffffffffffffff021916908373ffffffffffffffffffffffffffffffffffffffff160217905550610be3806100606000396000f3fe6080604052600436106100745760003560e01c80635d495aea1161004e5780635d495aea146101c05780635ec01e4d146101d7578063b0ec809414610202578063dfbf53ae1461022d57610128565b806312065fe01461012d57806335c1d34914610158578063481c6a751461019557610128565b3661012857670de0b6b3a764000034146100c3576040517f08c379a00000000000000000000000000000000000000000000000000000000081526004016100ba9061078f565b60405180910390fd5b6001339080600181540180825580915050600190039060005260206000200160009091909190916101000a81548173ffffffffffffffffffffffffffffffffffffffff021916908373ffffffffffffffffffffffffffffffffffffffff160217905550005b600080fd5b34801561013957600080fd5b50610142610258565b60405161014f91906107c8565b60405180910390f35b34801561016457600080fd5b5061017f600480360381019061017a9190610814565b6102ef565b60405161018c9190610882565b60405180910390f35b3480156101a157600080fd5b506101aa61032e565b6040516101b791906108be565b60405180910390f35b3480156101cc57600080fd5b506101d5610352565b005b3480156101e357600080fd5b506101ec61059d565b6040516101f991906107c8565b60405180910390f35b34801561020e57600080fd5b506102176105d7565b6040516102249190610997565b60405180910390f35b34801561023957600080fd5b50610242610665565b60405161024f9190610882565b60405180910390f35b60008060009054906101000a900473ffffffffffffffffffffffffffffffffffffffff1673ffffffffffffffffffffffffffffffffffffffff163373ffffffffffffffffffffffffffffffffffffffff16146102e9576040517f08c379a00000000000000000000000000000000000000000000000000000000081526004016102e090610a05565b60405180910390fd5b47905090565b600181815481106102ff57600080fd5b906000526020600020016000915054906101000a900473ffffffffffffffffffffffffffffffffffffffff1681565b60008054906101000a900473ffffffffffffffffffffffffffffffffffffffff1681565b60008054906101000a900473ffffffffffffffffffffffffffffffffffffffff1673ffffffffffffffffffffffffffffffffffffffff163373ffffffffffffffffffffffffffffffffffffffff16146103e0576040517f08c379a00000000000000000000000000000000000000000000000000000000081526004016103d790610a05565b60405180910390fd5b60036001805490501015610429576040517f08c379a000000000000000000000000000000000000000000000000000000000815260040161042090610a71565b60405180910390fd5b600061043361059d565b90506000600180549050826104489190610ac0565b90506001818154811061045e5761045d610af1565b5b9060005260206000200160009054906101000a900473ffffffffffffffffffffffffffffffffffffffff16600260006101000a81548173ffffffffffffffffffffffffffffffffffffffff021916908373ffffffffffffffffffffffffffffffffffffffff160217905550600260009054906101000a900473ffffffffffffffffffffffffffffffffffffffff1673ffffffffffffffffffffffffffffffffffffffff166108fc61050d610258565b9081150290604051600060405180830381858888f19350505050158015610538573d6000803e3d6000fd5b50600067ffffffffffffffff81111561055457610553610b20565b5b6040519080825280602002602001820160405280156105825781602001602082028036833780820191505090505b506001908051906020019061059892919061068b565b505050565b600044426001805490506040516020016105b993929190610b70565b6040516020818303038152906040528051906020012060001c905090565b6060600180548060200260200160405190810160405280929190818152602001828054801561065b57602002820191906000526020600020905b8160009054906101000a900473ffffffffffffffffffffffffffffffffffffffff1673ffffffffffffffffffffffffffffffffffffffff1681526020019060010190808311610611575b5050505050905090565b600260009054906101000a900473ffffffffffffffffffffffffffffffffffffffff1681565b828054828255906000526020600020908101928215610704579160200282015b828111156107035782518260006101000a81548173ffffffffffffffffffffffffffffffffffffffff021916908373ffffffffffffffffffffffffffffffffffffffff160217905550916020019190600101906106ab565b5b5090506107119190610715565b5090565b5b8082111561072e576000816000905550600101610716565b5090565b600082825260208201905092915050565b7f504c454153452050415920312045544845520000000000000000000000000000600082015250565b6000610779601283610732565b915061078482610743565b602082019050919050565b600060208201905081810360008301526107a88161076c565b9050919050565b6000819050919050565b6107c2816107af565b82525050565b60006020820190506107dd60008301846107b9565b92915050565b600080fd5b6107f1816107af565b81146107fc57600080fd5b50565b60008135905061080e816107e8565b92915050565b60006020828403121561082a576108296107e3565b5b6000610838848285016107ff565b91505092915050565b600073ffffffffffffffffffffffffffffffffffffffff82169050919050565b600061086c82610841565b9050919050565b61087c81610861565b82525050565b60006020820190506108976000830184610873565b92915050565b60006108a882610841565b9050919050565b6108b88161089d565b82525050565b60006020820190506108d360008301846108af565b92915050565b600081519050919050565b600082825260208201905092915050565b6000819050602082019050919050565b61090e81610861565b82525050565b60006109208383610905565b60208301905092915050565b6000602082019050919050565b6000610944826108d9565b61094e81856108e4565b9350610959836108f5565b8060005b8381101561098a5781516109718882610914565b975061097c8361092c565b92505060018101905061095d565b5085935050505092915050565b600060208201905081810360008301526109b18184610939565b905092915050565b7f594f5520415245204e4f5420544845204d414e41474552000000000000000000600082015250565b60006109ef601783610732565b91506109fa826109b9565b602082019050919050565b60006020820190508181036000830152610a1e816109e2565b9050919050565b7f504c415945525320415245204c455353205448414e2033000000000000000000600082015250565b6000610a5b601783610732565b9150610a6682610a25565b602082019050919050565b60006020820190508181036000830152610a8a81610a4e565b9050919050565b7f4e487b7100000000000000000000000000000000000000000000000000000000600052601260045260246000fd5b6000610acb826107af565b9150610ad6836107af565b925082610ae657610ae5610a91565b5b828206905092915050565b7f4e487b7100000000000000000000000000000000000000000000000000000000600052603260045260246000fd5b7f4e487b7100000000000000000000000000000000000000000000000000000000600052604160045260246000fd5b6000819050919050565b610b6a610b65826107af565b610b4f565b82525050565b6000610b7c8286610b59565b602082019150610b8c8285610b59565b602082019150610b9c8284610b59565b60208201915081905094935050505056fea26469706673582212201d1500b1775a6f6cbf949954658184545a6ea545828dd1cc7ec8d7dd2b030d6564736f6c634300080b0033",
  "immutableReferences": {},
  "source": "// SPDX-License-Identifier: MIT\npragma solidity >=0.5.0 <0.9.0;\n\ncontract Lottery {\n    address public manager;\n    address payable[] public participants;\n    address payable public winner;\n    constructor()\n    {\n        manager=msg.sender;\n    }\n    receive() payable external\n    {\n        require(msg.value==1 ether,\"PLEASE PAY 1 ETHER\");\n        participants.push(payable(msg.sender));\n    }\n    function getBalance() public view returns(uint)\n    {\n        require(msg.sender==manager,\"YOU ARE NOT THE MANAGER\");\n        return address(this).balance;\n    }\n    function random() public view returns(uint)\n    {\n        return uint(keccak256(abi.encodePacked(block.difficulty,block.timestamp,participants.length)));\n    }\n    function pickWinner() public\n    {\n        require(msg.sender ==manager,\"YOU ARE NOT THE MANAGER\");\n        require(participants.length>=3,\"PLAYERS ARE LESS THAN 3\");\n        uint randomWinner=random();\n        // address  payable winner;\n        uint indexposition = randomWinner % participants.length; //REMAINDER SHOUKD BE LESS THAN PLAYER.LENGTH\n        winner=participants[indexposition];\n        winner.transfer(getBalance());\n        participants=new address payable[](0); \n    }\n    function allPlayers() public view returns(address payable[]  memory)\n    {\n        return participants;\n    }\n}\n",
  "sourcePath": "G:\\Blockchain\\projects_blockchain\\lottery\\lottery\\contracts\\Lottery.sol",
  "compiler": {
    "name": "solc",
    "version": "0.8.11+commit.d7f03943.Emscripten.clang"
  },
  "schemaVersion": "3.4.16",
  "updatedAt": "2023-11-03T06:26:03.116Z",
  "networkType": "ethereum",
  "devdoc": {
    "kind": "dev",
    "methods": {},
    "version": 1
  },
  "userdoc": {
    "kind": "user",
    "methods": {},
    "version": 1
  }
}